{
  "abi": [
    {
      "inputs": [],
      "stateMutability": "nonpayable",
      "type": "constructor"
    },
    {
      "anonymous": false,
      "inputs": [
        {
          "indexed": false,
          "internalType": "address",
          "name": "previousAdmin",
          "type": "address"
        },
        {
          "indexed": false,
          "internalType": "address",
          "name": "newAdmin",
          "type": "address"
        }
      ],
      "name": "AdminChanged",
      "type": "event"
    },
    {
      "anonymous": false,
      "inputs": [
        {
          "indexed": true,
          "internalType": "address",
          "name": "beacon",
          "type": "address"
        }
      ],
      "name": "BeaconUpgraded",
      "type": "event"
    },
    {
      "anonymous": false,
      "inputs": [
        {
          "indexed": false,
          "internalType": "uint8",
          "name": "version",
          "type": "uint8"
        }
      ],
      "name": "Initialized",
      "type": "event"
    },
    {
      "anonymous": false,
      "inputs": [
        {
          "indexed": true,
          "internalType": "address",
          "name": "previousOwner",
          "type": "address"
        },
        {
          "indexed": true,
          "internalType": "address",
          "name": "newOwner",
          "type": "address"
        }
      ],
      "name": "OwnershipTransferred",
      "type": "event"
    },
    {
      "anonymous": false,
      "inputs": [
        {
          "indexed": false,
          "internalType": "address",
          "name": "account",
          "type": "address"
        }
      ],
      "name": "Paused",
      "type": "event"
    },
    {
      "anonymous": false,
      "inputs": [
        {
          "indexed": false,
          "internalType": "address",
          "name": "sender",
          "type": "address"
        },
        {
          "indexed": false,
          "internalType": "string",
          "name": "marquee",
          "type": "string"
        }
      ],
      "name": "SetMarquee",
      "type": "event"
    },
    {
      "anonymous": false,
      "inputs": [
        {
          "indexed": false,
          "internalType": "address",
          "name": "account",
          "type": "address"
        }
      ],
      "name": "Unpaused",
      "type": "event"
    },
    {
      "anonymous": false,
      "inputs": [
        {
          "indexed": true,
          "internalType": "address",
          "name": "implementation",
          "type": "address"
        }
      ],
      "name": "Upgraded",
      "type": "event"
    },
    {
      "inputs": [],
      "name": "getBalance",
      "outputs": [
        {
          "internalType": "uint256",
          "name": "",
          "type": "uint256"
        }
      ],
      "stateMutability": "view",
      "type": "function"
    },
    {
      "inputs": [],
      "name": "getMarquee",
      "outputs": [
        {
          "internalType": "string",
          "name": "",
          "type": "string"
        }
      ],
      "stateMutability": "view",
      "type": "function"
    },
    {
      "inputs": [],
      "name": "getPrice",
      "outputs": [
        {
          "internalType": "uint256",
          "name": "",
          "type": "uint256"
        }
      ],
      "stateMutability": "view",
      "type": "function"
    },
    {
      "inputs": [],
      "name": "initialize",
      "outputs": [],
      "stateMutability": "nonpayable",
      "type": "function"
    },
    {
      "inputs": [],
      "name": "maxLenMarquee",
      "outputs": [
        {
          "internalType": "uint256",
          "name": "",
          "type": "uint256"
        }
      ],
      "stateMutability": "view",
      "type": "function"
    },
    {
      "inputs": [],
      "name": "minValue",
      "outputs": [
        {
          "internalType": "uint256",
          "name": "",
          "type": "uint256"
        }
      ],
      "stateMutability": "view",
      "type": "function"
    },
    {
      "inputs": [],
      "name": "owner",
      "outputs": [
        {
          "internalType": "address",
          "name": "",
          "type": "address"
        }
      ],
      "stateMutability": "view",
      "type": "function"
    },
    {
      "inputs": [],
      "name": "pause",
      "outputs": [],
      "stateMutability": "nonpayable",
      "type": "function"
    },
    {
      "inputs": [],
      "name": "paused",
      "outputs": [
        {
          "internalType": "bool",
          "name": "",
          "type": "bool"
        }
      ],
      "stateMutability": "view",
      "type": "function"
    },
    {
      "inputs": [],
      "name": "proxiableUUID",
      "outputs": [
        {
          "internalType": "bytes32",
          "name": "",
          "type": "bytes32"
        }
      ],
      "stateMutability": "view",
      "type": "function"
    },
    {
      "inputs": [],
      "name": "renounceOwnership",
      "outputs": [],
      "stateMutability": "nonpayable",
      "type": "function"
    },
    {
      "inputs": [
        {
          "internalType": "string",
          "name": "newMarquee",
          "type": "string"
        }
      ],
      "name": "setMarquee",
      "outputs": [],
      "stateMutability": "payable",
      "type": "function"
    },
    {
      "inputs": [
        {
          "internalType": "address",
          "name": "newOwner",
          "type": "address"
        }
      ],
      "name": "transferOwnership",
      "outputs": [],
      "stateMutability": "nonpayable",
      "type": "function"
    },
    {
      "inputs": [],
      "name": "unpause",
      "outputs": [],
      "stateMutability": "nonpayable",
      "type": "function"
    },
    {
      "inputs": [
        {
          "internalType": "uint256",
          "name": "newMaxLenMarquee",
          "type": "uint256"
        }
      ],
      "name": "updateMaxLenMarquee",
      "outputs": [],
      "stateMutability": "nonpayable",
      "type": "function"
    },
    {
      "inputs": [
        {
          "internalType": "uint256",
          "name": "newMinValue",
          "type": "uint256"
        }
      ],
      "name": "updateMinValue",
      "outputs": [],
      "stateMutability": "nonpayable",
      "type": "function"
    },
    {
      "inputs": [
        {
          "internalType": "uint256",
          "name": "newPrice",
          "type": "uint256"
        }
      ],
      "name": "updatePrice",
      "outputs": [],
      "stateMutability": "nonpayable",
      "type": "function"
    },
    {
      "inputs": [
        {
          "internalType": "address",
          "name": "newImplementation",
          "type": "address"
        }
      ],
      "name": "upgradeTo",
      "outputs": [],
      "stateMutability": "nonpayable",
      "type": "function"
    },
    {
      "inputs": [
        {
          "internalType": "address",
          "name": "newImplementation",
          "type": "address"
        },
        {
          "internalType": "bytes",
          "name": "data",
          "type": "bytes"
        }
      ],
      "name": "upgradeToAndCall",
      "outputs": [],
      "stateMutability": "payable",
      "type": "function"
    },
    {
      "inputs": [],
      "name": "version",
      "outputs": [
        {
          "internalType": "uint256",
          "name": "",
          "type": "uint256"
        }
      ],
      "stateMutability": "view",
      "type": "function"
    },
    {
      "inputs": [],
      "name": "withdraw",
      "outputs": [],
      "stateMutability": "nonpayable",
      "type": "function"
    },
    {
      "inputs": [
        {
          "internalType": "address payable",
          "name": "to",
          "type": "address"
        }
      ],
      "name": "withdrawTo",
      "outputs": [],
      "stateMutability": "nonpayable",
      "type": "function"
    }
  ],
  "bytecode": {
    "object": "0x60a06040523060805234801561001457600080fd5b5061001d610022565b6100e1565b600054610100900460ff161561008e5760405162461bcd60e51b815260206004820152602760248201527f496e697469616c697a61626c653a20636f6e747261637420697320696e697469604482015266616c697a696e6760c81b606482015260840160405180910390fd5b60005460ff908116146100df576000805460ff191660ff9081179091556040519081527f7f26b83ff96e1f2b6a682f133852f6798a09c465da95921460cefb38474024989060200160405180910390a15b565b6080516117576101186000396000818161039d015281816103e6015281816104a9015281816104e9015261057c01526117576000f3fe6080604052600436106101355760003560e01c80635c975abb116100ab5780638456cb591161006f5780638456cb59146102de5780638d6cc56d146102f35780638da5cb5b14610313578063963e63c71461033b57806398d5fdca14610351578063f2fde38b1461036657600080fd5b80635c975abb1461024f5780636cc728db14610272578063715018a61461029457806372b0d90c146102a95780638129fc1c146102c957600080fd5b80633f4ba83a116100fd5780633f4ba83a146101c95780634f1ef286146101de57806352d1902d146101f157806354fd4d501461020657806355b64f201461021c57806358f6c2311461022f57600080fd5b806311bb3bb41461013a57806312065fe01461015c5780633544b52b1461017e5780633659cfe6146101945780633ccfd60b146101b4575b600080fd5b34801561014657600080fd5b5061015a610155366004611218565b610386565b005b34801561016857600080fd5b50475b6040519081526020015b60405180910390f35b34801561018a57600080fd5b5061016b60fe5481565b3480156101a057600080fd5b5061015a6101af366004611246565b610393565b3480156101c057600080fd5b5061015a61047b565b3480156101d557600080fd5b5061015a61048d565b61015a6101ec3660046112f6565b61049f565b3480156101fd57600080fd5b5061016b61056f565b34801561021257600080fd5b5061016b60fb5481565b61015a61022a36600461135a565b610622565b34801561023b57600080fd5b5061015a61024a366004611218565b6107df565b34801561025b57600080fd5b5060335460ff166040519015158152602001610175565b34801561027e57600080fd5b506102876107ec565b60405161017591906113f3565b3480156102a057600080fd5b5061015a610886565b3480156102b557600080fd5b5061015a6102c4366004611246565b610898565b3480156102d557600080fd5b5061015a6109a3565b3480156102ea57600080fd5b5061015a610b03565b3480156102ff57600080fd5b5061015a61030e366004611218565b610b13565b34801561031f57600080fd5b506065546040516001600160a01b039091168152602001610175565b34801561034757600080fd5b5061016b60fc5481565b34801561035d57600080fd5b5060fd5461016b565b34801561037257600080fd5b5061015a610381366004611246565b610b20565b61038e610b96565b60fe55565b6001600160a01b037f00000000000000000000000000000000000000000000000000000000000000001630036103e45760405162461bcd60e51b81526004016103db90611406565b60405180910390fd5b7f00000000000000000000000000000000000000000000000000000000000000006001600160a01b031661042d6000805160206116db833981519152546001600160a01b031690565b6001600160a01b0316146104535760405162461bcd60e51b81526004016103db90611452565b61045c81610bf0565b6040805160008082526020820190925261047891839190610bf8565b50565b610483610b96565b3361047881610898565b610495610b96565b61049d610d68565b565b6001600160a01b037f00000000000000000000000000000000000000000000000000000000000000001630036104e75760405162461bcd60e51b81526004016103db90611406565b7f00000000000000000000000000000000000000000000000000000000000000006001600160a01b03166105306000805160206116db833981519152546001600160a01b031690565b6001600160a01b0316146105565760405162461bcd60e51b81526004016103db90611452565b61055f82610bf0565b61056b82826001610bf8565b5050565b6000306001600160a01b037f0000000000000000000000000000000000000000000000000000000000000000161461060f5760405162461bcd60e51b815260206004820152603860248201527f555550535570677261646561626c653a206d757374206e6f742062652063616c60448201527f6c6564207468726f7567682064656c656761746563616c6c000000000000000060648201526084016103db565b506000805160206116db83398151915290565b61062a610dba565b600061063560fd5490565b9050803410156106875760405162461bcd60e51b815260206004820152601b60248201527f5b4d30315d20596f75206469646e27742070617920656e6f756768000000000060448201526064016103db565b60006106978360fe549051111590565b9050806107945760fc5460009033906106b0908561149e565b604051600081818185875af1925050503d80600081146106ec576040519150601f19603f3d011682016040523d82523d6000602084013e6106f1565b606091505b50509050806107425760405162461bcd60e51b815260206004820152601f60248201527f5b4d30325d204661696c656420746f2073656e642076616c7565206261636b0060448201526064016103db565b60405162461bcd60e51b815260206004820152602160248201527f5b4d30335d20596f7572206d657373616765206973206e6f7420616c6c6f77656044820152601960fa1b60648201526084016103db565b60ff6107a08482611547565b507f1e946919e9e9cfdbd2d6ed88c52f8e3410b63fd8ee93b3fbc70a1eb1e51819e433846040516107d2929190611607565b60405180910390a1505050565b6107e7610b96565b60fc55565b60606107f6610dba565b60ff8054610803906114bf565b80601f016020809104026020016040519081016040528092919081815260200182805461082f906114bf565b801561087c5780601f106108515761010080835404028352916020019161087c565b820191906000526020600020905b81548152906001019060200180831161085f57829003601f168201915b5050505050905090565b61088e610b96565b61049d6000610e00565b6108a0610b96565b6001600160a01b0381166109045760405162461bcd60e51b815260206004820152602560248201527f5b4d30345d2043616e6e6f7420776974686472617720746f207a65726f206164604482015264647265737360d81b60648201526084016103db565b60006001600160a01b03821647604051600081818185875af1925050503d806000811461094d576040519150601f19603f3d011682016040523d82523d6000602084013e610952565b606091505b505090508061056b5760405162461bcd60e51b815260206004820152601e60248201527f5b4d30355d204661696c656420746f207769746864726177204574686572000060448201526064016103db565b600054610100900460ff16158080156109c35750600054600160ff909116105b806109dd5750303b1580156109dd575060005460ff166001145b610a405760405162461bcd60e51b815260206004820152602e60248201527f496e697469616c697a61626c653a20636f6e747261637420697320616c72656160448201526d191e481a5b9a5d1a585b1a5e995960921b60648201526084016103db565b6000805460ff191660011790558015610a63576000805461ff0019166101001790555b610a6b610e52565b610a73610e81565b610a7b610eb0565b600160fb55600060fc5566038d7ea4c6800060fd556040805160608101909152602f8082526116ac602083013960ff90610ab59082611547565b5060c860fe558015610478576000805461ff0019169055604051600181527f7f26b83ff96e1f2b6a682f133852f6798a09c465da95921460cefb38474024989060200160405180910390a150565b610b0b610b96565b61049d610ed7565b610b1b610b96565b60fd55565b610b28610b96565b6001600160a01b038116610b8d5760405162461bcd60e51b815260206004820152602660248201527f4f776e61626c653a206e6577206f776e657220697320746865207a65726f206160448201526564647265737360d01b60648201526084016103db565b61047881610e00565b6065546001600160a01b0316331461049d5760405162461bcd60e51b815260206004820181905260248201527f4f776e61626c653a2063616c6c6572206973206e6f7420746865206f776e657260448201526064016103db565b610478610b96565b7f4910fdfa16fed3260ed0e7147f7cc6da11a60208b5b9406d12a635614ffd91435460ff1615610c3057610c2b83610f14565b505050565b826001600160a01b03166352d1902d6040518163ffffffff1660e01b8152600401602060405180830381865afa925050508015610c8a575060408051601f3d908101601f19168201909252610c879181019061162b565b60015b610ced5760405162461bcd60e51b815260206004820152602e60248201527f45524331393637557067726164653a206e657720696d706c656d656e7461746960448201526d6f6e206973206e6f74205555505360901b60648201526084016103db565b6000805160206116db8339815191528114610d5c5760405162461bcd60e51b815260206004820152602960248201527f45524331393637557067726164653a20756e737570706f727465642070726f786044820152681a58589b195555525160ba1b60648201526084016103db565b50610c2b838383610fb0565b610d70610fdb565b6033805460ff191690557f5db9ee0a495bf2e6ff9c91a7834c1ba4fdd244a5e8aa4e537bd38aeae4b073aa335b6040516001600160a01b03909116815260200160405180910390a1565b60335460ff161561049d5760405162461bcd60e51b815260206004820152601060248201526f14185d5cd8589b194e881c185d5cd95960821b60448201526064016103db565b606580546001600160a01b038381166001600160a01b0319831681179093556040519116919082907f8be0079c531659141344cd1fd0a4f28419497f9722a3daafe3b4186f6b6457e090600090a35050565b600054610100900460ff16610e795760405162461bcd60e51b81526004016103db90611644565b61049d611024565b600054610100900460ff16610ea85760405162461bcd60e51b81526004016103db90611644565b61049d611057565b600054610100900460ff1661049d5760405162461bcd60e51b81526004016103db90611644565b610edf610dba565b6033805460ff191660011790557f62e78cea01bee320cd4e420270b5ea74000d11b0c9f74754ebdbfc544b05a258610d9d3390565b6001600160a01b0381163b610f815760405162461bcd60e51b815260206004820152602d60248201527f455243313936373a206e657720696d706c656d656e746174696f6e206973206e60448201526c1bdd08184818dbdb9d1c9858dd609a1b60648201526084016103db565b6000805160206116db83398151915280546001600160a01b0319166001600160a01b0392909216919091179055565b610fb983611087565b600082511180610fc65750805b15610c2b57610fd583836110c7565b50505050565b60335460ff1661049d5760405162461bcd60e51b815260206004820152601460248201527314185d5cd8589b194e881b9bdd081c185d5cd95960621b60448201526064016103db565b600054610100900460ff1661104b5760405162461bcd60e51b81526004016103db90611644565b6033805460ff19169055565b600054610100900460ff1661107e5760405162461bcd60e51b81526004016103db90611644565b61049d33610e00565b61109081610f14565b6040516001600160a01b038216907fbc7cd75a20ee27fd9adebab32041f755214dbc6bffa90cc0225b39da2e5c2d3b90600090a250565b60606110ec83836040518060600160405280602781526020016116fb602791396110f5565b90505b92915050565b6060600080856001600160a01b031685604051611112919061168f565b600060405180830381855af49150503d806000811461114d576040519150601f19603f3d011682016040523d82523d6000602084013e611152565b606091505b50915091506111638683838761116d565b9695505050505050565b606083156111dc5782516000036111d5576001600160a01b0385163b6111d55760405162461bcd60e51b815260206004820152601d60248201527f416464726573733a2063616c6c20746f206e6f6e2d636f6e747261637400000060448201526064016103db565b50816111e6565b6111e683836111ee565b949350505050565b8151156111fe5781518083602001fd5b8060405162461bcd60e51b81526004016103db91906113f3565b60006020828403121561122a57600080fd5b5035919050565b6001600160a01b038116811461047857600080fd5b60006020828403121561125857600080fd5b813561126381611231565b9392505050565b634e487b7160e01b600052604160045260246000fd5b600067ffffffffffffffff8084111561129b5761129b61126a565b604051601f8501601f19908116603f011681019082821181831017156112c3576112c361126a565b816040528093508581528686860111156112dc57600080fd5b858560208301376000602087830101525050509392505050565b6000806040838503121561130957600080fd5b823561131481611231565b9150602083013567ffffffffffffffff81111561133057600080fd5b8301601f8101851361134157600080fd5b61135085823560208401611280565b9150509250929050565b60006020828403121561136c57600080fd5b813567ffffffffffffffff81111561138357600080fd5b8201601f8101841361139457600080fd5b6111e684823560208401611280565b60005b838110156113be5781810151838201526020016113a6565b50506000910152565b600081518084526113df8160208601602086016113a3565b601f01601f19169290920160200192915050565b6020815260006110ec60208301846113c7565b6020808252602c908201527f46756e6374696f6e206d7573742062652063616c6c6564207468726f7567682060408201526b19195b1959d85d1958d85b1b60a21b606082015260800190565b6020808252602c908201527f46756e6374696f6e206d7573742062652063616c6c6564207468726f7567682060408201526b6163746976652070726f787960a01b606082015260800190565b818103818111156110ef57634e487b7160e01b600052601160045260246000fd5b600181811c908216806114d357607f821691505b6020821081036114f357634e487b7160e01b600052602260045260246000fd5b50919050565b601f821115610c2b57600081815260208120601f850160051c810160208610156115205750805b601f850160051c820191505b8181101561153f5782815560010161152c565b505050505050565b815167ffffffffffffffff8111156115615761156161126a565b6115758161156f84546114bf565b846114f9565b602080601f8311600181146115aa57600084156115925750858301515b600019600386901b1c1916600185901b17855561153f565b600085815260208120601f198616915b828110156115d9578886015182559484019460019091019084016115ba565b50858210156115f75787850151600019600388901b60f8161c191681555b5050505050600190811b01905550565b6001600160a01b03831681526040602082018190526000906111e6908301846113c7565b60006020828403121561163d57600080fd5b5051919050565b6020808252602b908201527f496e697469616c697a61626c653a20636f6e7472616374206973206e6f74206960408201526a6e697469616c697a696e6760a81b606082015260800190565b600082516116a18184602087016113a3565b919091019291505056fe666f7220746865206c6f7665206f66207361746f73686920706c65617365206a75737420776f726b2064616d6d6974360894a13ba1a3210667c828492db98dca3e2076cc3735a920a3ca505d382bbc416464726573733a206c6f772d6c6576656c2064656c65676174652063616c6c206661696c6564a2646970667358221220e93adbd22b040351c75897c7c0a1e1216a1d0fd9d5d7d5b6e094899c8c20748164736f6c63430008130033",
    "linkReferences": {}
  },
  "methodIdentifiers": {
    "getBalance()": "12065fe0",
    "getMarquee()": "6cc728db",
    "getPrice()": "98d5fdca",
    "initialize()": "8129fc1c",
    "maxLenMarquee()": "3544b52b",
    "minValue()": "963e63c7",
    "owner()": "8da5cb5b",
    "pause()": "8456cb59",
    "paused()": "5c975abb",
    "proxiableUUID()": "52d1902d",
    "renounceOwnership()": "715018a6",
    "setMarquee(string)": "55b64f20",
    "transferOwnership(address)": "f2fde38b",
    "unpause()": "3f4ba83a",
    "updateMaxLenMarquee(uint256)": "11bb3bb4",
    "updateMinValue(uint256)": "58f6c231",
    "updatePrice(uint256)": "8d6cc56d",
    "upgradeTo(address)": "3659cfe6",
    "upgradeToAndCall(address,bytes)": "4f1ef286",
    "version()": "54fd4d50",
    "withdraw()": "3ccfd60b",
    "withdrawTo(address)": "72b0d90c"
  },
  "id": 40
}